:100000000C9434000C9451000C9451000C94510049
:100010000C9451000C9451000C9451000C9451001C
:100020000C9451000C9451000C94C8000C94510095
:100030000C9451000C9451000C9451000C945100FC
:100040000C9451000C9451000C9451000C945100EC
:100050000C9451000C9451000C9451000C945100DC
:100060000C9451000C94510011241FBECFEFD8E026
:10007000DEBFCDBF11E0A0E0B1E0EEE6F2E002C0ED
:1000800005900D92A630B107D9F721E0A6E0B1E0C6
:1000900001C01D92A630B207E1F70E94EC000C945B
:1000A00035010C94000080917A00806480937A007E
:1000B00080917A0084FFFCCF9091790015B882E09E
:1000C0008EBD0DB407FEFDCF8EB5E3E0F1E081916A
:1000D0008EBD0DB407FEFDCF8EB581E0E630F8078A
:1000E000B1F79EBD0DB407FEFDCF8EB584E085B996
:1000F00015B883E08EBD0DB407FEFDCF8EB5E0E0F0
:10010000F1E081918EBD0DB407FEFDCF8EB581E08B
:10011000E330F807B1F71EBC0DB407FEFDCF8EB576
:1001200094E095B990E09093890080938800809145
:1001300005018F5F809305018F3FC9F08091020117
:100140008F5F809302018F3F09F0089510920201A2
:10015000809101018F5F809301018F3FB1F7109271
:100160000101809100018F5F80930001089510923A
:100170000501809104018F5F809304018F3FF1F6A8
:1001800010920401809103018F5F80930301D6CF09
:100190001F920F920FB60F9211242F933F934F93FC
:1001A0005F936F937F938F939F93AF93BF93EF93DF
:1001B000FF930E945300FF91EF91BF91AF919F91E8
:1001C0008F917F916F915F914F913F912F910F9000
:1001D0000FBE0F901F9018958CB580658CBD8091D7
:1001E0007C00806280937C0080917A00826880939A
:1001F0007A0080917E00836080937E0080918000F1
:100200008268809380008091810081618093810069
:1002100083EF91E0909387008093860080916F0038
:10022000806280936F0010928B0010928A008EE2A1
:1002300084B984E085B9789415B881E08EBD0DB499
:1002400007FEFDCF8EB51EBC0DB407FEFDCF8EB5EB
:1002500084E085B980917C00806280937C008091ED
:0E0260007C008E7F80937C00FFCFF894FFCF50
:06026E003000003000002A
:00000001FF
